:02000002B0004C
:1040000000400B002C4F0B000000060017000502BB
:084010000401A60F00000000EE
:04401800584C0B00F5
:10401C0009480A49884208B505D0094A824202D0AB
:10402C00121A00F061FD0748074A0021121A00F02D
:10403C0069FD014808BD00BF48E60320984E0B00FF
:10404C00B4E60320B4E60320EDE7032070B5074E79
:10405C00074C00F077FBA41BA4080025AC4200D150
:10406C0070BD56F8043B98470135F7E74C4E0B00F2
:10407C006C4E0B0000F013B808B500F011F8BDE859
:10408C00084000F017BB00F029B900F02FB90078F8
:10409C00B0FA80F0400970470123037070477047F5
:1040AC007047000008B5024B1B681B68019308BDE4
:1040BC004C02030008B5024B1B681B69019308BD39
:1040CC004C02030008B5024B1B685B69019308BDE9
:1040DC004C02030008B5024B1B689B69019308BD99
:1040EC004C02030008B5024B1B68DB69019308BD49
:1040FC004C02030008B5024B1B681B6A019308BDF8
:10410C004C02030008B5024B1B68DB68019308BD29
:10411C003C02030008B5024B1B681B69019308BDE8
:10412C003C02030008B5024B1B685B69019308BD98
:10413C003C02030008B5024B1B689B69019308BD48
:10414C003C02030008B5024B1B68DB69019308BDF8
:10415C003C02030008B5024B1B689B6A019308BD27
:10416C003C02030008B5024B1B681B6C019308BD95
:10417C003C02030008B5024B1B685B69019308BD48
:10418C006402030008B5024B1B685B6C019308BD0D
:10419C004802030008B5024B1B685B68019308BD1D
:1041AC001802030008B5024B1B685B69019308BD3C
:1041BC001802030008B5024B1B689B68019308BDED
:1041CC006802030008B5024B1B68DB68019308BD4D
:1041DC006802030008B5024B1B68DB6B019308BD3A
:1041EC004402030008B5024B1B685B68019308BDD1
:1041FC004002030008B5024B1B689B68019308BD85
:10420C004002030008B5024B1B68DB68019308BD34
:10421C004002030008B5024B1B681B69019308BDE3
:10422C004002030008B5024B1B685B69019308BD93
:10423C004002030008B5024B1B689B69019308BD43
:10424C004002030008B5024B1B68DB69019308BDF3
:10425C004002030008B5024B1B681B6A019308BDA2
:10426C004002030008B5024B1B681B6B019308BD91
:10427C004002030008B5024B1B685B6B019308BD41
:10428C004002030008B5024B1B681B6C019308BD70
:10429C004002030008B5024B1B685B6C019308BD20
:1042AC004002030008B5024B1B685B68019308BD14
:1042BC002002030008B5034B1B68D3F88830019328
:1042CC0008BD00002002030008B5034B1B68D3F89F
:1042DC009430019308BD00002002030008B5024B86
:1042EC001B681B68019308BD1C02030008B5024B38
:1042FC001B685B68019308BD1C02030008B5024BE8
:10430C001B681B6C019308BD1C02030008B5024B13
:10431C001B685B6C019308BD1C0203000023406802
:10432C001A46FFF75FBF406800220221FFF76ABF01
:10433C00002240681146FFF75DBF0022406811461D
:10434C00FFF768BF002340681A461946FFF76ABF9B
:10435C00002340681A461946FFF76CBF40680021DD
:10436C00FFF790BF40680021FFF794BF4068002220
:10437C0081F00101FFF766BF40680022FFF772BFB2
:10438C00002240681146FFF775BF002240681146B5
:10439C00FFF760BF2DE9F04395B014460D46074674
:1043AC0000F028F900211C220DA8009100F0AAFBB6
:1043BC0040230C9320466B460CAA0021FFF702FF0A
:1043CC00044600284BD1024601216868FFF722FF02
:1043DC000221804622466868FFF71CFF009E81463A
:1043EC002146002E3BD0002939D17368022B03D013
:1043FC000A2B11D0F669F4E7B8F1000FFAD0716905
:10440C0006A8043107AD00F023F90FCD3C1D0FC4F5
:10441C002B6823704146EDE7B9F1000FEAD07469BF
:10442C00102201A800F06EFB06238DF8143001ADAC
:10443C0004F108031834186859682A4603C2083373
:10444C00A3421546F7D101A906A807AD00F0E0F884
:10445C000FCD3C1D0FC42B6823704946CAE700984A
:10446C00FFF7A8FE384615B0BDE8F083024B034AAF
:10447C001A6000225A607047B4E60320744C0B009B
:10448C00417470477047704708B50021007CFFF7F6
:10449C0021FE40EAE07008BD08B50121007CFFF761
:1044AC0019FE40EAE07008BD08B5007CFFF70AFE73
:1044BC0020EAE07008BD08B5007CFFF7FBFD20EAA0
:1044CC00E07008BD13B50446007C0191FFF7FAFDBE
:1044DC000028019901DC607C20B1207CFFF702FEF2
:1044EC0020EAE07002B010BD007CFFF703BE10B5EF
:1044FC0014210446FFF7C9FD204610BD10B54FF43A
:10450C007A73044608460021C4E90113044B236066
:10451C000123207463741146FFF7C4FD204610BDBF
:10452C00B04C0B0010B514220446002100F0EAFA3E
:10453C00204610BD10B50F4C88B003A8FFF7F2FF52
:10454C002178BFF35B8F11F001010FD1204601914F
:10455C00FFF79DFD019948B103AA0748FFF7CEFF6D
:10456C002046FFF799FD054800F0B8FA024808B05C
:10457C0010BD00BFBCE60320C0E6032091440B0035
:10458C00704710B518210446FFF77FFD204610BD7B
:10459C00F0B5037D062B8DB00E4600F104074FF0ED
:1045AC00000412D000F1080515F8011D0A2230464E
:1045BC0000F089F9AF42044419D0002CF4D02E211C
:1045CC00304600F07DF90444EEE72F236A46394665
:1045DC000A208DF80040FFF7CDFD684600F0C8FAC0
:1045EC0033680246DB6869463046984704462046E5
:1045FC000DB0F0BD10B5054B0446112240F8043B3C
:10460C00002100F07FFA204610BD00BFE04C0B00EB
:10461C000346074A10B543F8042B01F1100251F878
:10462C00044B43F8044B9142F9D10A781A7010BD2F
:10463C00E04C0B0010B59DF8084044EA032343EA14
:10464C00024242EA016104234160037510BD00007F
:10465C0007B5064B0360CB7800938B784A780978C2
:10466C00FFF7E8FF03B05DF804FB00BFE04C0B0064
:10467C00014B1860704700BF4CE6032008B50B4B8C
:10468C0043B1FFF757FF03681B699847002801DD0A
:10469C00AFF30080064B43B100F0FAF903681B69D5
:1046AC009847002801DDAFF3008008BD0000000032
:1046BC000000000008B5FFF7E1FFFFF773FD014BA9
:1046CC00186008BD40E703200548064A064908B5AE
:1046DC00121A00F009FA054B054A1A6008BD00BF12
:1046EC0000F4032004F40320944E0B0000F4032088
:1046FC001E1C279A07B5002300931A466FF077010A
:10470C00FFF7E2FD03B05DF804FB000007B543883A
:10471C000A2B08D0502B0BD1094B1B684BB103B0A3
:10472C005DF804EB1847FFF7E5FF03B05DF804FBF9
:10473C00002300931A466FF07701FFF7C5FDF4E7ED
:10474C00D8E6032010B512480021FFF7DFFD114B0E
:10475C001A68114B9A42114B0CBF012200221A709D
:10476C0001D0FFF7B1FFFFF715FD044600F0D2F9B9
:10477C000B4B13B12046AFF3008000210848FFF724
:10478C0029FDBDE8104007480021FFF793BD00BF8D
:10479C007D460B0000F403201E1C279AD4E6032050
:1047AC000000000019470B00002240681146FFF77B
:1047BC0031BD002240681146FFF74CBD0022406815
:1047CC001146FFF757BD40680022FFF74BBD40680C
:1047DC00002281F00101FFF735BD002340681A4625
:1047EC001946FFF727BD002340681A461946FFF704
:1047FC0019BD002240681146FFF7FCBC406800223E
:10480C000221FFF7FFBC002340681A46FFF7EABC01
:10481C00084B10B5282422461846002100F072F9E6
:10482C00054B04804FF0FF32426004225A60034A69
:10483C001A6010BDE4E60320DCE60320F44C0B0008
:10484C00014B00229A6070470CE70320024B1A6858
:10485C00024B1A60704700BF48E603201CE7032098
:10486C00014B024A1A60704720E70320444D0B00AD
:10487C00F8B506460D468F180024BD420CD033689F
:10488C0015F8011B9B6830469847031E01DB1C443E
:10489C00F3E7002C08BF1C462046F8BD13B50446B0
:1048AC00084659B1019100F063F923680199DB685E
:1048BC000246204602B0BDE81040184702B010BDB9
:1048CC0003689B68184730B58BB00023012A8DF81C
:1048DC00243098BF0A2209AC0D46B1FBF2F101FB62
:1048EC00125303F0FF03092B94BF30333733DBB281
:1048FC00AA4204F8013DEFD92146FFF7CFFF0BB0D8
:10490C0030BD0000024800230360FFF73BBC00BF32
:10491C0024E7032070474174704708B5007CFFF70B
:10492C0019FC20EAE07008BD08B5007CFFF7F2FB2B
:10493C0020EAE07008BD08B5007CFFF7FBFB40EAFD
:10494C00E07008BD08B5007CFFF7ECFB40EAE070B6
:10495C0008BD007CFFF7F6BB37B5457C04462DB18E
:10496C00207C03B0BDE83040FFF7CCBB007C01914C
:10497C00FFF7F0FB00280199F2DC284603B030BDAC
:10498C0010B514210446FFF780FB204610BD000033
:10499C0010B54FF47A730446084611460022C4E958
:1049AC000123044B2360012320746374FFF7DAFBAB
:1049BC00204610BD504D0B00054B02221A60054BD2
:1049CC00054A9A600020C3E90000FFF76BBC00BFEA
:1049DC0034E7032028E703200000FFFF0022406893
:1049EC001146FFF737BC002240681146FFF742BC66
:1049FC0040680022FFF736BC4068002281F00101BC
:104A0C00FFF720BC002340681A461946FFF712BC7A
:104A1C00002340681A461946FFF704BC0022406880
:104A2C001146FFF7F7BB002240681146FFF7E2BBC7
:104A3C00406800220221FFF7E5BB002340681A46BC
:104A4C00FFF7D0BB024B03225A60024A1A60704730
:104A5C0038E70320804D0B007047000038B5044642
:104A6C0014252A46002100F04DF8258040250749E1
:104A7C0025812846258200F02FF8044960602846DD
:104A8C0000F02AF8E060204638BD00BFB44D0B00A2
:104A9C0030B50E4D2978BFF35B8F11F0010487B050
:104AAC0011D12846FFF7F3FA68B101A8FFF7D6FF3A
:104ABC0001AA21460648FFF76BFF2846FFF7ECFAE0
:104ACC00044800F00BF8024807B030BD44E703205F
:104ADC0048E70320654A0B00FFF7D5BA00230146CF
:104AEC001A46184600F04CB80A44914200F1FF33C4
:104AFC0000D1704710B511F8014B03F8014F9142EA
:104B0C00F9D110BD02440346934200D1704703F81B
:104B1C00011BF9E738B5104B1D68AB6B0446B3B9F4
:104B2C001820FFF7DBFB0246A86320B90B4B0C489F
:104B3C004221FFF7E3FB0B490B4BC0E900130B4B76
:104B4C0083600B23838100210120C2E90401AB6B3C
:104B5C0000221C615A6138BD4CE60320B54D0B0098
:104B6C00CC4D0B000E33CDAB34126DE6ECDE0500F4
:104B7C00034613F8012B002AFBD1181A0138704791
:104B8C002DE9F843DFF8B8800646D8F800001F4638
:104B9C000D46914600F056F8254B1C6834B9254C4F
:104BAC001C60254B13B11B68C4F8883063681F2B3D
:104BBC0007DDD8F8000000F047F84FF0FF30BDE8F3
:104BCC00F8834EB3D4F8880088B91C4B23B9D8F8B5
:104BDC00000000F038F8F0E74FF48470FFF77EFB2C
:104BEC000028F4D00023C0E94033C4F8880063687F
:104BFC0040F8239001229A4000EB8301D0F8003159
:104C0C001343C0F80031022EC1F8807002BFD0F8F7
:104C1C0004311343C0F804316368D8F800005A1CFF
:104C2C000233626044F8235000F00EF80020C6E70F
:104C3C00E8E703205CE7032000000000E9420B00DA
:104C4C00B0E6032070477047704700001D400B0012
:104C5C0059400B0081400B0085400B000000000008
:104C6C00000000000000000029430B0033430B0040
:104C7C003D430B0047430B0051430B005D430B00BE
:104C8C0069430B0071430B0079430B0085430B0008
:104C9C008D430B0097430B00A1430B000000000059
:104CAC000000000093440B00FB440B00D1440B00AC
:104CBC007D480B00C3440B0095440B00A5440B002E
:104CCC00F5440B00B5440B008D440B0000000000B4
:104CDC00000000009D450B008D450B008F450B001F
:104CEC00000000000000000013480B0009480B00F6
:104CFC00FF470B00B5470B00F3470B00E7470B00D2
:104D0C0069430B0071430B00DB470B00D3470B00CF
:104D1C00C9470B00BF470B00A1430B0025592D259C
:104D2C006D2D25645425483A254D3A2553257A0096
:104D3C0061736374696D6500617070000000000040
:104D4C000000000021490B008D490B0065490B0048
:104D5C007D480B0035490B0051490B0043490B00B2
:104D6C005F490B0023490B0027490B000000000092
:104D7C0000000000474A0B003D4A0B00334A0B0071
:104D8C00294A0B001D4A0B00114A0B0069430B000A
:104D9C0071430B00054A0B00FD490B00F3490B0056
:104DAC00E9490B00A1430B00005245454E54206DC0
:104DBC00616C6C6F63207375636365656465640017
:104DCC002F6D6E742F776F726B73706163652F77B5
:104DDC006F726B73706163652F4743432D31302DB8
:104DEC00706970656C696E652F6A656E6B696E7340
:104DFC002D4743432D31302D706970656C696E659C
:104E0C002D34385F32303230313132345F3136301C
:104E1C00363138303634312F7372632F6E65776CC0
:104E2C0069622F6E65776C69622F6C6962632F7390
:104E3C0074646C69622F72616E642E6300000000F2
:104E4C0079440B001D480B004D480B0059480B00D2
:104E5C006D480B0011490B00C5490B00514A0B0062
:044E6C000000000042
:104E7000040000001400000003000000474E55002D
:104E800071D3A88F41EBA830FAC65A02BB1B15C4D8
:044E90008F4358F301
:044E9400000000001A
:104E98003C4D0B0050E6032000000000000000001D
:104EA80000000000000000000000000000000000FA
:104EB80000000000000000000000000000000000EA
:104EC80000000000000000000000000000000000DA
:104ED80000000000000000000000000000000000CA
:104EE80000000000000000000000000000000000BA
:0C4EF8000000000000000000ECE70320B8
:104F0400FFFFFFFF00000102030405060708090A6A
:104F14000B0C0D0E0F101112131415161718191A65
:084F24001B1C1D1E1F202800AC
:044F2C00785634126D
:04000003B000401CED
:00000001FF
